:020000040800F2
:1000000000040010C10100080105000801050008F6
:1000100001050008010500080105000801050008A8
:10002000010500080105000801050008E129000894
:100030000105000801050008010500080165000828
:100040000105000801050008010500080105000878
:100050000105000801050008010500080105000868
:10006000010500080105000801050008015F0008FE
:10007000515F0008A15F0008F15F000841600008BF
:1000800091600008E1600008010500080105000812
:100090000105000801050008010500080105000828
:1000A0000105000801050008010500080105000818
:1000B000010500080105000801050008016A0008A3
:1000C000216A000801050008010500080105000873
:1000D00001050008919100080105000801050008CC
:1000E00001050008010500080105000801050008D8
:1000F000010500080105000801050008316100083C
:1001000001050008D1870008010500080105000865
:1001100001050008010500080105000801050008A7
:1001200081610008D1610008216200087162000845
:10013000C16200080105000801050008010500086A
:100140000105000801050008010500080105000877
:100150001163000861630008B1630008010500082D
:100160000105000801050008010500080105000857
:1001700001050008117800080105000801050008C4
:100180000105000801050008010500080105000837
:100190000105000801050008010500080105000827
:1001A0000105000801050008010500080105000817
:1001B0000105000801050008010500080105000807
:1001C00072B6344880F3098840F20000CCF2000097
:1001D0004EF63471CEF200010860BFF34F8FBFF3CB
:1001E0006F8F40F20000C0F2F0004EF68851CEF260
:1001F00000010860BFF34F8FBFF36F8F4FF0000017
:10020000E1EE100A4EF63C71CEF2000108600620C5
:1002100080F31488BFF36F8F00F022F909F008F81B
:100220004FF055301C491D4A91423CBF41F8040B28
:10023000FAE71B49174A91423CBF41F8040BFAE721
:100240001849194A194B9A423EBF51F8040B42F81B
:10025000040BF8E700201649164A91423CBF41F8CA
:10026000040BFAE700F014F900F002F9124C134DF8
:10027000AC4203DA54F8041B8847F9E708F0F8FFAA
:100280000F4C104DAC4203DA54F8041B8847F9E7D1
:1002900000F0F6B800080010000000100004001084
:1002A0000004001090AF000800000020240000208F
:1002B00028210020203E0020C0010008C0010008C5
:1002C000C0010008C001000800000000000000009C
:1002D0002DE9F04F2DED108AC1F80CD0C3689D4672
:1002E000BDEC108ABDE8F08F00F032FB01F000FB9E
:1002F000002383F311882846A047002001F0D8F896
:1003000001F0EEFA00F00CFB00F0F2FE00F020FB32
:1003100001F0EEFA00DFFEE7000000000000000040
:10032000844641EA000313F003036DD1403A41D300
:1003300051F8043B40F8043B51F8043B40F8043BBF
:1003400051F8043B40F8043B51F8043B40F8043BAF
:1003500051F8043B40F8043B51F8043B40F8043B9F
:1003600051F8043B40F8043B51F8043B40F8043B8F
:1003700051F8043B40F8043B51F8043B40F8043B7F
:1003800051F8043B40F8043B51F8043B40F8043B6F
:1003900051F8043B40F8043B51F8043B40F8043B5F
:1003A00051F8043B40F8043B51F8043B40F8043B4F
:1003B000403ABDD2303211D351F8043B40F8043BEF
:1003C00051F8043B40F8043B51F8043B40F8043B2F
:1003D00051F8043B40F8043B103AEDD20C3205D3FF
:1003E00051F8043B40F8043B043AF9D2043208D0F7
:1003F000D2071CBF11F8013B00F8013B01D30B8869
:1004000003806046704700BF082A13D38B078DD046
:1004100010F003038AD0C3F10403D21ADB071CBF18
:1004200011F8013B00F8013B80D331F8023B20F882
:10043000023B7BE7043AD9D3013A11F8013B00F8BB
:10044000013BF9D20B7803704B7843708B78837043
:10045000604670470000000000000000000000003F
:10046000704700BF00000000000000000000000016
:10047000704700BF00000000000000000000000006
:10048000FEE700BF000000000000000000000000C8
:1004900084B0164B0393039B1B680293039B5B681A
:1004A000019309E0029B1A68019B1A60019B0433C7
:1004B0000193029B04330293039B9B68019A9A4227
:1004C000F0D305E0019B00221A60019B04330193E5
:1004D000039BDB68019A9A42F4D3039B1033039386
:1004E000039B034A9342D6D304B0704770A300081D
:1004F000F0A3000800000000000000000000000061
:10050000FEE700BF00000000000000000000000047
:1005100084B00190019B03F0070303930A4BDB684F
:100520000293029A4FF6FF0313400293039B1A02B1
:10053000029B134343F0BF6343F400330293024A28
:10054000029BD36004B0704700ED00E000000000A3
:1005500082B0034600918DF807309DF90730002BDB
:100560000CDA009BDAB20B499DF8073003F00F0359
:10057000043B1201D2B20B441A7609E0009BDAB2B6
:1005800005499DF907301201D2B20B4483F80023CC
:1005900002B0704700ED00E000E100E00000000064
:1005A00008B50E4B00229A600320FFF7B1FF0C4BF9
:1005B000DB680B4A43F08073D3600A4B1B68094A1F
:1005C00043F00103136001216FF00400FFF7C0FF47
:1005D00002216FF00100FFF7BBFF08BD00ED00E056
:1005E000F0ED00E0001000E000000000000000005E
:1005F00082B020230193019B83F3118802B07047DE
:1006000082B000230193019B83F3118802B07047ED
:1006100008B5FFF7EDFF08BD000000000000000076
:1006200008B5FFF7EDFF08BD000000000000000066
:1006300072B67047000000000000000000000000DB
:1006400082B000230193019B83F3118862B602B04C
:10065000704700BF00000000000000000000000024
:1006600030BF7047000000000000000000000000E4
:10067000014B5B6818467047001000E00000000066
:1006800008B500F035F9FFF7DBFF08BD00000000FA
:1006900008B5FFF7BDFF01F033F900F071F908BDAF
:1006A00008B500F085F901F033F9FFF7B9FF08BD8F
:1006B00000B583B000F0D4F9184B9B6A0133174A98
:1006C0009362164BDB69164A934224D0134BDB69C5
:1006D0009A68013A9A6019E0104BDB690193019B1B
:1006E000DB680093019B0022DA60019B1B680C4AC7
:1006F0005A60019B1B68094AD361FFF7D1FF019B38
:100700001A69009B10469847FFF7C2FF034BDB694D
:100710009B68002BE0D003B05DF804FB282100208B
:100720004421002000000000000000000000000044
:1007300082B00190024B9B69019A9A6102B07047A6
:100740002821002000000000000000000000000040
:1007500082B001900091019B009A9A6102B07047AB
:1007600000B583B00190FFF77BFFFCE700000000BD
:1007700000B585B0FFF714FF00F0EAFA00F0A0F929
:1007800000F0C6FF01F0A4FF01F0F2FF01F060F8F5
:100790004021154800F0ACFD0246144B9A61134B02
:1007A0009B69012283F82020104B9B69104ADA6173
:1007B0000E4B9B694833184600F0EAFFFFF760FFD5
:1007C0000C48FFF7B5FF002300930B4B01224FF4B9
:1007D000C0710A4800F02CFE039009490398FFF706
:1007E000B7FF05B05DF804FB602100202821002040
:1007F0000004001060A50008610700080022002026
:10080000F0A300080000000000000000000000004D
:1008100000B583B00190FFF70BFF054B5B69044AFD
:1008200043F080035361034A019BD362FEE700BF9C
:100830000008024028210020000000000000000005
:1008400008B500F00DF9FFF733FF08BD0000000008
:1008500084B0039002910192039A029BD21A0199EB
:10086000029BCB1A9A4234BF01230023DBB2184605
:1008700004B070470000000000000000000000000D
:1008800000B585B00190FFF7F3FE0390039A019B3A
:1008900013440293FFF7ECFE0346029A03991846AD
:1008A000FFF7D6FF0346002BF4D105B05DF804FB3B
:1008B00082B020230193019B83F3118802B070471B
:1008C00082B000230193019B83F3118802B070472B
:1008D00008B5FFF7EDFF08BD0000000000000000B4
:1008E00008B5FFF7EDFF08BD0000000000000000A4
:1008F00008B5064B1B6B002B03D1044B5B6B002B25
:1009000002D00348FFF784FF08BD00BF2821002064
:1009100000A400080000000000000000000000002B
:1009200008B5074B1B6B002B03D1054B5B6B002BF2
:1009300002D00448FFF76CFF014B01225A6308BD47
:100940002821002010A40008000000000000000082
:1009500008B5074B1B6B002B03D1054B5B6B002BC2
:1009600002DC0448FFF754FF014B00225A6308BD24
:100970002821002020A40008000000000000000042
:1009800008B5074B1B6B002B03DD054B5B6B002B86
:1009900002D00448FFF73CFF014B01225A6308BD17
:1009A0002821002030A40008000000000000000002
:1009B00008B5074B1B6B002B03DD054B5B6B002B56
:1009C00002DC0448FFF724FF014B00225A6308BDF4
:1009D0002821002040A400080000000000000000C2
:1009E00008B5FFF775FF094B1B6B002B03DB074BAB
:1009F0005B6B002B02D00648FFF70AFF034B1B6B13
:100A00000133024A1363FFF76BFF08BD2821002062
:100A100050A40008000000000000000000000000DA
:100A200008B5FFF755FF094B1B6B002B03DD074B88
:100A30005B6B002B02D00648FFF7EAFE034B1B6BF3
:100A4000013B024A1363FFF74BFF08BD282100203A
:100A500060A400080000000000000000000000008A
:100A600008B5064B1B6B002B03DB044B5B6B002BA9
:100A700002DC0348FFF7CCFE08BD00BF28210020A0
:100A800070A400080000000000000000000000004A
:100A900008B5064B1B6B002B03D1044B5B6B002B83
:100AA00002DC0348FFF7B4FE08BD00BF2821002088
:100AB00080A400080000000000000000000000000A
:100AC000064B074ADA61054B054A1A62034B4FF0A1
:100AD000FF325A62014B00229A627047282100209F
:100AE0004421002000000000000000000000000081
:100AF00000B587B00390029101920093FFF7B0FF19
:100B0000039B002B05D0019B002B02D0029B002BE6
:100B100002D12148FFF77CFE039B009A1A61039BD8
:100B2000019ADA60029B04931C4BDB6905930EE08B
:100B3000059A039B9A4202D11748FFF769FE059B6D
:100B40009B68049AD31A0493059B1B680593059B25
:100B50009B68049A9A42EBD8039B059A1A60039B00
:100B60001B685A68039B5A60039B5B68039A1A6070
:100B7000059B039A5A60039B049A9A60059B9A68A6
:100B8000049BD21A059B9A60044B4FF0FF325A62C5
:100B900007B05DF804FB00BF90A4000828210020E6
:100BA00000B583B00190FFF75BFF019B002B02D1E2
:100BB0001348FFF72DFE019BDB68002B02D1104884
:100BC000FFF726FE019B1B689968019B9A68019BB1
:100BD0001B680A449A60019B5B68019A12681A605C
:100BE000019B1B68019A52685A60019B0022DA60DF
:100BF000044B4FF0FF325A6203B05DF804FB00BFB4
:100C0000A0A400082821002000000000000000002F
:100C100082B020230193019B83F3118802B07047B7
:100C200082B000230193019B83F3118802B07047C7
:100C300008B5FFF7EDFF08BD000000000000000050
:100C400008B5FFF7EDFF08BD000000000000000040
:100C500082B00190019B019A1A60019B019A5A602F
:100C600002B070470000000000000000000000001B
:100C700084B00190019B1B680393039B1A68019B3E
:100C80001A60019B1B68019A5A60039B184604B0C6
:100C9000704700BF000000000000000000000000DE
:100CA00082B00190019B5B68019A12681A60019BF7
:100CB0001B68019A52685A60019B184602B070473F
:100CC00008B5FFF7CDFE064B1B689A68044B9B697D
:100CD0009B689A428CBF01230023DBB2184608BDF3
:100CE000282100200000000000000000000000009B
:100CF00008B5FFF79DFF00F003FEFFF741FE08BDBA
:100D000008B5FFF755FE00F003FEFFF799FF08BD99
:100D100000B583B00190FFF7A3FE019BDB68002BB9
:100D200014BF01230023DBB2184603B05DF804FBB7
:100D300000B583B00190FFF793FE019B9B685A1C9E
:100D4000019B9A6003B05DF804FB00BF0000000047
:100D500008B50648FFF77CFF044B00229A60034B5E
:100D6000024A1A61014B014A5A6108BD282100203C
:100D700000B585B00190FFF773FE019B002B02D1F7
:100D80001848FFF745FD019B93F82030002B04D055
:100D9000019B93F820300F2B02D11248FFF738FD4A
:100DA000019B002283F820200F4B0393039B1B68B9
:100DB0000393039B9A68019B9B689A42F6D2019B1E
:100DC000039A1A60039B5A68019B5A60019B5B68F7
:100DD000019A1A60039B019A5A60019B184605B05C
:100DE0005DF804FBC0A400082821002000000000DA
:100DF00010B584B003468DF80730FFF749FE184B55
:100E00009B690393039B9DF8072083F820201448D7
:100E1000FFF72EFF0246124B9A61114B9B6901228C
:100E200083F820200E4B9B690399184600F038FD8B
:100E3000EFF309831C4623460293029BA3F164024D
:100E4000039BDB699A4202D20648FFF7E1FC044BA0
:100E50009B6903991846FFF73BFA04B010BD00BF29
:100E600028210020B0A400080000000000000000BD
:100E700000B585B00190019B0393FFF739FF039BF9
:100E800093F82030072B23D801A252F823F000BF9B
:100E9000B10E0008D10E0008D10E0008B70E0008F0
:100EA000CB0E0008C10E0008D10E0008CB0E0008C2
:100EB000FFF726FF15E0039B5B6A00221A6007E03C
:100EC000039B5B6A1846FFF733FF0398FFF7E8FEC2
:100ED000039B4FF0FF325A620398FFF749FFFFF779
:100EE0000FFF05B05DF804FB0000000000000000EB
:100EF00000B589B0034600918DF80730FFF7C8FDB3
:100F0000009BB3F1FF3F17D0114B9B6903A8114A17
:100F10000099FFF7EDFD9DF807301846FFF768FFD1
:100F200003AB1846FFF7F4FE0346002B09D003ABD2
:100F30001846FFF735FE04E09DF807301846FFF726
:100F400057FF034B9B695B6A184609B05DF804FBC9
:100F500028210020710E00080000000000000000A1
:100F600010B584B001900091FFF792FD214B1B68F2
:100F7000204A93420AD01F4B9B699A681D4B1B68FD
:100F80009B689A4202D21C48FFF742FC019B009AE0
:100F90005A62019B9A68174B9B699B689A4203D8D7
:100FA0000198FFF7E5FE23E0124B9B691846FFF717
:100FB000DFFE03900F4A019B9361019B012283F89E
:100FC00020200399019800F06BFCEFF309831C4685
:100FD00023460293029BA3F16402039BDB699A42BE
:100FE00002D20648FFF714FC03990198FFF770F945
:100FF00004B010BD28210020D0A40008B0A400082F
:1010000008B5FFF745FDFFF75BFE0346002B01D057
:1010100000F01EF808BD00BF000000000000000046
:1010200082B0094B1B689B680193074B9B699B68C7
:101030000093019A009B9A428CBF01230023DBB2EC
:10104000184602B0704700BF2821002000000000B1
:1010500010B584B0234B9B6902932248FFF708FE2A
:101060000246204B9A611F4B9B69012283F8202086
:10107000029B002283F820201A4B0393039B1B68DA
:101080000393039B9A68029B9B689A42F6D8029B43
:10109000039A1A60039B5A68029B5A60029B5B6822
:1010A000029A1A60039B029A5A600E4B9B6902993E
:1010B000184600F0F5FBEFF309831C462346019325
:1010C000019BA3F16402029BDB699A4202D20648AB
:1010D000FFF79EFB034B9B6902991846FFF7F8F850
:1010E00004B010BD28210020B0A4000800000000BA
:1010F00008B5FFF7ADFF08BD0000000000000000CC
:1011000082B020230193019B83F3118802B07047C2
:1011100082B000230193019B83F3118802B07047D2
:1011200082B00190019B019A1A6002B0704700BF23
:1011300082B00190019B1B68019A9A4214BF01235F
:101140000023DBB2184602B0704700BF0000000069
:1011500082B00190019B019A1A60019B019A5A602A
:1011600002B0704700000000000000000000000016
:1011700082B00190019B1B68019A9A4214BF01231F
:101180000023DBB2184602B0704700BF0000000029
:1011900084B00190019B1B680393039B1A68019B19
:1011A0001A60039B184604B0704700BF000000009F
:1011B00082B001900091019B009A1A60009B5A68CE
:1011C000019B5A60019B5B68019A1A60009B019A1F
:1011D0005A6002B0704700BF00000000000000002D
:1011E00084B00190019B1B680393039B1A68019BC9
:1011F0001A60019B1B68019A5A60039B184604B051
:10120000704700BF00000000000000000000000068
:1012100008B5FFF775FF00F063FBFFF781FB08BD22
:1012200008B5FFF795FB00F063FB094B1B68084A04
:1012300093420AD0064B9B699A68054B1B689B68D2
:101240009A4202D20348FFF7E3FAFFF761FF08BDB5
:1012500028210020F0A40008000000000000000089
:10126000014B9B69184670472821002000000000B0
:1012700000B583B00190019B002B02D10448FFF719
:10128000C7FA01990820FFF733FE03B05DF804FBAD
:1012900000A50008000000000000000000000000A1
:1012A00000B585B0019000910198FFF761FF0346FA
:1012B00083F00103DBB2002B02D00C48FFF7A8FA41
:1012C0000198FFF78DFF0390039B93F82030042BC8
:1012D00002D00648FFF79CFA039B009A5A620398D3
:1012E000FFF746FD05B05DF804FB00BF40A5000810
:1012F00000B583B001900091019B009A9A60019B18
:10130000022283F82020019B002283F82120019BE8
:10131000009A1A64019B0022DA63019B00229A63FF
:10132000019B012283F82220019B00229A61019BEC
:10133000124A1A61114B5A69019B5A61019B5B6900
:10134000019A1A610D4A019B5361019B283318468B
:10135000FFF7E6FE019B2C331846FFF7F9FE019BD1
:1013600003F16002019BDA61019B4833184600F0EB
:10137000EFF9019B184603B05DF804FB282100201B
:1013800084B00390029113468DF8073005E0039B6B
:101390005A1C03929DF807201A70039A029B9A42E6
:1013A000F5D304B0704700BF00000000000000004B
:1013B00000B587B00390029101920093039B0593BF
:1013C000FFF74EFB039B002B09D0029BB3F5B87FC0
:1013D00005D3019B7F2B02D8009B002B02D10F4825
:1013E000FFF716FA029B643B039A1A44059BDA60E6
:1013F000059BDB68009A1A64059BDB68089A5A64AF
:10140000059BDB68064A1A6601990598FFF770FF8D
:101410000346184607B05DF804FB00BFE0A40008CF
:10142000E9020008000000000000000000000000C9
:1014300000B589B00590049103920293059B603337
:10144000FF2219460598FFF79BFF059B03F16000FB
:10145000059A049B134455221946FFF791FFFFF7A5
:10146000D7FE0A9B0093029B039A04990598FFF705
:101470009FFF079000210798FFF772FDFFF7D0FE4E
:10148000079B184609B05DF804FB00BF0000000090
:1014900000B583B00190FFF7BBFE0198FFF7E8FEAF
:1014A000FFF7BEFE03B05DF804FB00BF00000000C4
:1014B00000B583B00190FFF7ABFE019800F008F88B
:1014C00003B05DF804FB00BF000000000000000056
:1014D00000B585B00190194B9B690393039B019A5A
:1014E0005A6208E0039B28331846FFF751FE034673
:1014F0001846FFF73DFC039B28331846FFF718FEFC
:101500000346002BEED1039B93F8213003F0030335
:10151000002B09D1039B5B69039A12691A61039B33
:101520001B69039A52695A610F20FFF761FC044856
:10153000FFF76EF905B05DF804FB00BF282100201D
:1015400010A50008000000000000000000000000DE
:1015500000B585B00190FFF783FE0390019B1B68E7
:10156000002B02D00948FFF753F9019B039A1A6038
:10157000039B019A5A620320FFF73AFCFFF770FEC3
:1015800003465B6A184605B05DF804FB20A5000819
:1015900000B585B001900091019B1B68002B13D012
:1015A000019B1B680393039B93F82030032B02D00D
:1015B0000748FFF72DF9019B00221A60039B009A50
:1015C0005A620398FFF7D4FB05B05DF804FB00BF37
:1015D00030A500080000000000000000000000002E
:1015E00000B583B001900091009B002B02D14FF019
:1015F000FF330AE0074B9B6901991846FFF7D8FDB6
:1016000000990420FFF774FC0346184603B05DF808
:1016100004FB00BF282100200000000000000000A3
:1016200000B583B0019000910198FFF7A1FD03463A
:10163000002B03D000990198FFF732FE03B05DF84C
:1016400004FB00BF000000000000000000000000DC
:1016500000B583B00190009103E000990198FFF775
:101660001FFE0198FFF784FD0346002BF5D103B060
:101670005DF804FB00000000000000000000000016
:10168000014B5B6818467047001000E00000000046
:101690002DE9100884B0039002910192039BDB684E
:1016A0005A1C039BDA60039B9B68029AD21A019B27
:1016B000D21A039B9A60039BD3E90412039B9B6895
:1016C0009B464FF0000C1BEB01034CEB0204039A0A
:1016D000C2E90434039B9A68039B5B689A4203D96E
:1016E000039B9A68039B5A60039B9A68039B1B6841
:1016F0009A4203D2039B9A68039B1A6004B0BDE828
:10170000100870470000000000000000000000000A
:1017100000B587B00B4B0022C3F898206B461846E3
:1017200000F016F86B46184600F032F86B46184683
:1017300000F03EF8029B034AC2F8983007B05DF80B
:1017400004FB00BF28210020000000000000000072
:1017500010B483B00190019B4FF0FF321A60019BDF
:1017600000225A60019B00229A60019B0022DA60ED
:10177000019A4FF000034FF00004C2E9043403B0B3
:101780005DF8044B704700BF00000000000000003F
:1017900000B583B00190FFF773FF0246019B9A608A
:1017A00003B05DF804FB00BF000000000000000073
:1017B00000B583B00190FFF763FF0146044BD3F8F7
:1017C00098301A460198FFF763FF03B05DF804FBF9
:1017D00028210020000000000000000000000000A0
:1017E00000B583B001900091FFF74AFF0246009BCD
:1017F0009A60009B9B68002219460198FFF748FFFA
:1018000003B05DF804FB00BF000000000000000012
:1018100082B020230193019B83F3118802B07047AB
:1018200082B000230193019B83F3118802B07047BB
:1018300008B5FFF7EDFF08BD000000000000000044
:1018400008B5FFF7EDFF08BD000000000000000034
:1018500008B5074B0022C3F8A020054B0022C3F8AF
:10186000A4200448FFF774FF0348FFF771FF08BD89
:1018700028210020D0210020E821002000000000C5
:1018800008B5FFF7D5FF054BD3F8A0300133034A65
:10189000C2F8A030FFF7D4FF08BD00BF2821002008
:1018A00000B583B001900091094BD3F8A430013307
:1018B000074AC2F8A430009B03F14802019B483359
:1018C00019461046FFF78CFF03B05DF804FB00BF1C
:1018D000282100200000000000000000000000009F
:1018E00008B50248FFF754FF08BD00BFD021002013
:1018F00008B50248FFF75CFF08BD00BFD0210020FB
:1019000008B50248FFF744FF08BD00BFE8210020EA
:1019100008B50248FFF74CFF08BD00BFE8210020D2
:1019200082B020230193019B83F3118802B070479A
:1019300082B000230193019B83F3118802B07047AA
:1019400082B00190019B019A1A60019B019A5A6032
:1019500002B070470000000000000000000000001E
:1019600082B00190019B1B68019A9A4214BF012327
:101970000023DBB2184602B0704700BF0000000031
:1019800084B001900091009B0393039B1B68039319
:10199000039A009B9A4205D0039B9A68019B9B681F
:1019A0009A42F2D2019B039A1A60039B5A68019BE8
:1019B0005A60019B5B68019A1A60039B019A5A6006
:1019C00004B07047000000000000000000000000AC
:1019D00084B00190019B1B680393039B1A68019BD1
:1019E0001A60019B1B68019A5A60039B184604B059
:1019F000704700BF00000000000000000000000071
:101A000082B00190019B5B68019A12681A60019B89
:101A10001B68019A52685A60019B184602B07047D1
:101A200008B5FFF77DFFFFF75BFFFEF779FF08BD05
:101A300008B5FEF78DFFFFF75BFF094B1B68084AEF
:101A400093420AD0064B9B699A68054B1B689B68BA
:101A50009A4202D20348FEF7DBFEFFF769FF08BD9A
:101A60002821002090A500080000000000000000D0
:101A700000B583B00190FFF70BF8019B1846FFF704
:101A80006FFF0346184603B05DF804FB000000003A
:101A900000B583B00190019B002B02D10648FEF7F0
:101AA000B7FE019B1846FFF74BFF019B00229A608F
:101AB00003B05DF804FB00BF80A500080000000033
:101AC00000B583B00190FFF7ABFF019800F008F874
:101AD000FFF7AEFF03B05DF804FB00BF000000009D
:101AE00000B585B001903B4B9B690293FEF7D0FF98
:101AF000019B002B02D13848FEF78AFE019B9B68B0
:101B0000002B59D0019B9B68039333E0029B9A689A
:101B1000039B9A60039B93F82030062B04D0072B7D
:101B200011D0002B1AD02BE00398FFF769FF024673
:101B3000039B5B6A19461046FFF722FF039B5B6A13
:101B40009B68039316E00398FFF75AFF0246039B36
:101B50005B6A19461046FFF713FF11E0039B012251
:101B600083F820200398FFF74BFF03461846FFF742
:101B7000FFF805E0039B9A68029B9B689A42C5D3D5
:101B8000019B19460298FFF7FBFE029B019A5A62DD
:101B90000620FFF72DF9019B9B68029A9A4202D01A
:101BA0000D48FEF735FE029BDB6B019A9A420DD081
:101BB0000948FEF72DFE09E0019B029A9A60029BFC
:101BC000DA6B019BDA60029B019ADA6305B05DF87B
:101BD00004FB00BF28210020A0A500080000000091
:101BE00000B587B00190354B9B690393019B002B97
:101BF00002D13348FEF70CFEFFF712FF039BDB6BAD
:101C0000002B02D12E48FEF703FE039BDB6B9B6883
:101C1000039A9A4202D02A48FEF7FAFD039BDB6B37
:101C2000019A9A4202D02648FEF7F2FD019BDA683B
:101C3000039BDA630198FFF71BFF0346002B34D0A8
:101C4000039B1B6C0493039BDB6B059312E00598CD
:101C5000FFF70EFF0346002B09D0059B1B689B680E
:101C6000049A9A4203D2059B1B689B680493059BC8
:101C7000DB680593059B002BE9D1039B049A9A60CE
:101C8000019B1846FFF7A4FE0290019B029A9A60FE
:101C9000029BDA6B019BDA60029B019ADA6302987D
:101CA000FFF766F8FFF7ACF902E0019B00229A60AB
:101CB000FFF7BEFE07B05DF804FB00BF282100203F
:101CC000B0A50008000000000000000000000000B7
:101CD00000B585B001900091FEF7C2FE019B002B7C
:101CE00002D11448FEF794FD019B1B6803931AE090
:101CF000039BDA68009B1A43039BDA60009B002B6E
:101D000006D0039BDA68039B1B691340002B07D0A6
:101D1000039B5A68039B9B681946104600F010F815
:101D2000039B1B680393039A019B9A42E0D105B081
:101D30005DF804FBC0A500080000000000000000E2
:101D400000B583B001900091FEF78AFE019B002B45
:101D500002D11648FEF75CFD019B9A6B009B1A436B
:101D6000019B9A63019B93F820300A2B06D1019BBB
:101D70009A6B019B5B6A1340002B0DD1019B93F87A
:101D800020300B2B0ED1019B9A6B019B5B6A1A4092
:101D9000019B5B6A9A4205D1019B00225A6201981D
:101DA000FEF7E6FF03B05DF804FB00BFE0A5000806
:101DB00082B020230193019B83F3118802B0704706
:101DC00082B000230193019B83F3118802B0704716
:101DD00082B00190019B019A1A60019B019A5A609E
:101DE00002B070470000000000000000000000008A
:101DF00008B5FFF7DDFFFFF773FDFEF791FD08BDA6
:101E000008B5FEF7A5FDFFF773FD094B1B68084AEF
:101E100093420AD0064B9B699A68054B1B689B68E6
:101E20009A4202D20348FEF7F3FCFFF7C9FF08BD50
:101E30002821002000A6000800000000000000008B
:101E400000B583B001900198FFF7C2FF03B05DF8C1
:101E500004FB00BF000000000000000000000000C4
:101E600082B00190019B5B681A46019B1B68D31AE4
:101E70009B10184602B070470000000000000000F0
:101E800000B583B00190FEF7EBFD019B1B6918467E
:101E900003B05DF804FB00BF00000000000000007C
:101EA00010B582B00190FEF7DBFD0198FFF7D8FF77
:101EB00004460198FFF7E4FF0346E31A184602B010
:101EC00010BD00BF00000000000000000000000086
:101ED00000B585B0039002910192039B002B05D0C1
:101EE000029B002B02D0019B002B02DC1248FEF764
:101EF0008FFC039B029A1A60039B029ADA60039B91
:101F0000029A9A60019B9B00029A1A44039B5A60B2
:101F1000039B00221A61039B00221A75039B18334E
:101F20001846FFF78DFF039B20331846FFF788FF05
:101F300005B05DF804FB00BFF0A50008000000003C
:101F400000B587B0039002910192FFF751FF019A0B
:101F50000299039800F00CF80590FFF751FF059BDC
:101F6000184607B05DF804FB000000000000000008
:101F700000B587B0039002910192FEF789FD039BA3
:101F8000002B02D11F48FEF743FC039B1B7D002B57
:101F900002D06FF0010330E00398FFF781FF0346A2
:101FA000002B1FDD039B9B68191D039A9160029A09
:101FB0001A60039B9A68039B5B689A4203D3039B56
:101FC0001A68039B9A60039B1B695A1C039B1A6146
:101FD000039B203300211846FFF722FBFFF710F880
:101FE00000230AE0039B183301991846FFF7F8FA1B
:101FF0000590059B002BC8D0059B184607B05DF8DF
:1020000004FB00BF10A60008000000000000000054
:1020100000B587B0039002910192FFF7E9FE019AA3
:102020000299039800F00CF80590FFF7E9FE059B74
:10203000184607B05DF804FB000000000000000037
:1020400000B587B0039002910192FEF721FD039B3A
:10205000002B02D0029B002B02D12048FEF7D8FBB8
:10206000039B1B7D002B02D06FF0010331E003982E
:10207000FFF706FF0346002B20DD039BDB68191DDD
:10208000039AD1601A68029B1A60039BDA68039B6B
:102090005B689A4203D3039B1A68039BDA60039B35
:1020A0001B695A1E039B1A61039B183300211846B3
:1020B000FFF7B6FAFEF7A4FF00230AE0039B2033E4
:1020C00001991846FFF78CFA0590059B002BC7D0A5
:1020D000059B184607B05DF804FB00BF20A600086A
:1020E00082B020230193019B83F3118802B07047D3
:1020F00082B000230193019B83F3118802B07047E3
:1021000082B00190019B019A1A60019B019A5A606A
:1021100002B0704700000000000000000000000056
:1021200008B5FFF7DDFFFFF7DBFBFEF7F9FB08BDA6
:1021300008B5FEF70DFCFFF7DBFB094B1B68084AEF
:1021400093420AD0064B9B699A68054B1B689B68B3
:102150009A4202D20348FEF75BFBFFF7C9FF08BDB6
:102160002821002030A60008000000000000000028
:1021700000B583B001900198FFF7C2FF03B05DF88E
:1021800004FB00BF00000000000000000000000091
:1021900000B583B00190FEF763FC019B9B68002BA8
:1021A0000CBF01230023DBB2184603B05DF804FB2B
:1021B00000B583B00190FEF753FC019B5A69019B67
:1021C0009B699A4205D1019B9B68002B01D001239A
:1021D00000E0002303F00103DBB2184603B05DF812
:1021E00004FB00BF00000000000000000000000031
:1021F00000B583B00190FEF733FC019B5A69019B47
:102200009B699A4205D1019B9B68002B01D0012359
:1022100000E0002303F00103DBB2184603B05DF8D1
:1022200004FB00BF000000000000000000000000F0
:1022300000B583B00190FEF713FC019B9B68002B57
:102240000CBF01230023DBB2184603B05DF804FB8A
:1022500000B585B00390029101920093039B18464C
:10226000FFF786FF039B00229A60039B029ADA60C5
:10227000039B029A9A61039B029A5A61029A019BFC
:102280001A44039B1A61039B009ADA61039B069A26
:102290001A6205B05DF804FB0000000000000000B9
:1022A00000B583B001900B468DF80330FEF7D8FBE4
:1022B0000198FFF77DFF0346002B02D06FF0030368
:1022C0001CE0019B9B685A1C019B9A60019B5B6907
:1022D000591C019A51619DF803201A70019B5A699B
:1022E000019B1B699A4203D3019BDA68019B5A61E7
:1022F000019B00211846FFF793F90023184603B00D
:102300005DF804FB00000000000000000000000079
:1023100000B585B001900091FFF702FF019BDB69DA
:10232000002B11D0019BDB69019898470CE0019BC1
:1023300000991846FFF754F90290029B002B03DA2C
:10234000FFF7F6FE029B20E00198FFF721FF03460E
:10235000002BECD1019B9B685A1E019B9A60019B4C
:102360009B69591C019A91611B788DF80F30019B74
:102370009A69019B1B699A4203D3019BDA68019B0E
:102380009A61FFF7D5FE9DF80F30184605B05DF84D
:1023900004FB00BF0000000000000000000000007F
:1023A00000B587B00390029101920093039BDB6913
:1023B000049300230593019B002B02D12548FEF7CF
:1023C00027FAFFF7ADFE049B002B0FD0049B039868
:1023D00098470BE0039B00991846FFF701F9034665
:1023E000002B03D0FFF7A4FE059B2EE00398FFF718
:1023F000CFFE0346002BEDD1039B9B685A1E039B27
:102400009A60039B9A69511C039B9961029B591C1A
:10241000029112781A70039B9A69039B1B699A4276
:1024200003D3039BDA68039B9A61FFF781FE059B48
:1024300001330593019B013B0193019B002B01D1CB
:10244000059B02E0FFF76CFEBDE7184607B05DF89C
:1024500004FB00BF40A600080000000000000000D0
:1024600000B585B00390029101920093039B18463A
:10247000FFF77EFE039B019A9A60039B029ADA6043
:10248000039B029A9A61039B029A5A61029A019BEA
:102490001A44039B1A61039B009ADA61039B069A14
:1024A0001A6205B05DF804FB0000000000000000A7
:1024B00000B587B003900B4601928DF80B30FFF703
:1024C0002FFE0CE0039B01991846FFF789F8059051
:1024D000059B002B03DAFFF72BFE059B27E00398F3
:1024E000FFF7A6FE0346002BECD1039B9B685A1E08
:1024F000039B9A60039B5B69591C039A51619DF889
:102500000B201A70039B5A69039B1B699A4203D3E1
:10251000039BDA68039B5A61039BDB69002B03D0A2
:10252000039BDB6903989847FFF702FE00231846D8
:1025300007B05DF804FB00BF0000000000000000D1
:1025400000B585B00190FEF78BFA0198FFF750FEB9
:102550000346002B02D06FF002031DE0019B9B6835
:102560005A1C019B9A60019B9B69591C019A9161BD
:102570001B788DF80F30019B9A69019B1B699A4269
:1025800003D3019BDA68019B9A61019B00211846E5
:10259000FFF746F89DF80F30184605B05DF804FBCC
:1025A00000B587B00390029101920093039BDB6911
:1025B000049300230593019B002B02D12548FEF7CD
:1025C00027F9FFF7ADFD0BE0039B00991846FFF7D5
:1025D00007F80346002B03D0FFF7AAFD059B34E064
:1025E0000398FFF725FE0346002BEDD1039B9B6864
:1025F0005A1E039B9A60029A531C0293039B5B69C9
:10260000581C0399486112781A70039B5A69039BFE
:102610001B699A4203D3039BDA68039B5A61049BAC
:10262000002B02D0049B03989847FFF781FD059B80
:1026300001330593019B013B0193019B002B01D1C9
:10264000059B02E0FFF76CFDCAE7184607B05DF88E
:1026500004FB00BF50A600080000000000000000BE
:1026600082B020230193019B83F3118802B070474D
:1026700082B000230193019B83F3118802B070475D
:1026800008B5FFF7EDFFFFF72BF9FEF749F908BD95
:1026900008B5FEF75DF9FFF72BF9094B1B68084AEF
:1026A00093420AD0064B9B699A68054B1B689B684E
:1026B0009A4202D20348FEF7ABF8FFF7D9FF08BDF4
:1026C0002821002070A60008000000000000000083
:1026D000064B073323F007031A46054B1A60054BD8
:1026E00023F007031A46044B1A607047203E00206F
:1026F000802300200000022084230020000000002E
:1027000000B585B00190FFF7BBFF019800F008F815
:102710000390FFF7BDFF039B184605B05DF804FB6F
:1027200000B585B00190FEF79BF9019B073323F0BC
:10273000070301930C4B1B681A460C4B1B68D31AFA
:102740001A46019B934201D9002309E0074B1B68FD
:102750000393064B1A68019B1344044A1360039BBE
:10276000184605B05DF804FB842300208023002078
:1027700008B5064B064A1A60044B00229A60034BC8
:102780000022DA600348FFF783F908BD88230020A0
:10279000012700089823002000000000000000002E
:1027A00082B020230193019B83F3118802B070470C
:1027B00082B000230193019B83F3118802B070471C
:1027C00008B5FFF7EDFFFFF78BF8FEF7A9F808BD96
:1027D00008B5FEF7BDF8FFF78BF8094B1B68084AF0
:1027E00093420AD0064B9B699A68054B1B689B680D
:1027F0009A4202D20348FEF70BF8FFF7D9FF08BD53
:1028000028210020C0A600080000000000000000F1
:1028100000B583B0019000910099019800F0B0F8E4
:1028200003B05DF804FB00BF0000000000000000E2
:1028300000B585B0039002910192039B002B02D05A
:10284000029B032B02D80748FDF7E2FF039B0022FF
:102850001A60039B029A5A60039B019A9A6005B022
:102860005DF804FB80A600080000000000000000E6
:1028700000B585B0039002910192039B002B02D01A
:10288000019B002B0FD10B48FDF7C2FF0BE0029913
:102890000398FFF7BDFF039B5B68029A1344029302
:1028A000019B013B0193019B002BF0D105B05DF82A
:1028B00004FB00BFA0A6000800000000000000000C
:1028C00000B585B00190FEF7CBF8019B002B02D13B
:1028D0000F48FDF79DFF019B1B680393039B002B93
:1028E00005D0019B1B681A68019B1A600AE0019BD6
:1028F0009B68002B06D0019B9B68019A526810468A
:1029000098470390039B184605B05DF804FB00BF91
:10291000B0A6000800000000000000000000000059
:1029200000B585B00190FFF74BFF0198FFF7C8FF96
:102930000390FFF74DFF039B184605B05DF804FBBD
:1029400000B585B001900091009B0393FEF788F8D5
:10295000019B002B02D0009B002B02D10648FDF703
:1029600057FF019B1A68039B1A60019B039A1A6028
:1029700005B05DF804FB00BFD0A600080000000011
:1029800000B583B001900091FFF71AFF00990198FC
:10299000FFF7D6FFFFF71CFF03B05DF804FB00BF95
:1029A00082B020230193019B83F3118802B070470A
:1029B00082B000230193019B83F3118802B070471A
:1029C00008B5FFF7EDFF08BD0000000000000000A3
:1029D00008B5FFF7EDFF08BD000000000000000093
:1029E00090B583B000AF0C4B5B680B4A23F001033A
:1029F0005360EFF309831C4623467B607B68683392
:102A00007B607B683B603B6883F30988FFF7E0FFEE
:102A10000C37BD4690BD00BF30EF00E00000000065
:102A200090B585B000AFFFF7CBFF184B5B6803F4A0
:102A30000063002B25D0F1EE103A7B60EFF30983A1
:102A40001C462346FB60FB68683BFB60FB684FF05D
:102A50008072DA610E4BDB681A46FB681A66FB6807
:102A6000BB60BB6883F30988FEF7DAFA0346002BE4
:102A700003D0FB68074A9A6105E0FB68064A9A6141
:102A800001E0FFF7A5FF1437BD4690BD00ED00E063
:102A900030EF00E00103000814030008000000000C
:102AA000704700BF000000000000000000000000B0
:102AB00008B5FFF7F5FF03F073F9094803F070FD5F
:102AC00000F00EFE01F0ECFC01F09AF902F060FC5F
:102AD00001F0AEFF06F0C4FB00F00AF808BD00BF2D
:102AE000B0AC000800000000000000000000000082
:102AF00008B503F015FD08BD00000000000000004F
:102B000082B020230193019B83F3118802B07047A8
:102B100082B000230193019B83F3118802B07047B8
:102B200082B00190019B019A1A60019B019A5A6040
:102B300002B070470000000000000000000000002C
:102B400008B5FFF7DDFFFEF7CBFEFDF7E9FE08BD98
:102B500008B5FDF7FDFEFEF7CBFE094B1B68084AE2
:102B600093420AD0064B9B699A68054B1B689B6889
:102B70009A4202D20348FDF74BFEFFF7C9FF08BD9A
:102B80002821002010A7000800000000000000001D
:102B9000014B9B6A18467047282100200000000066
:102BA00000B583B001900198FFF7BAFF03B05DF85C
:102BB00004FB00BF00000000000000000000000057
:102BC00008B5FFF7BDFF08BD0000000000000000D1
:102BD00008B5FFF7BDFF08BD0000000000000000C1
:102BE00008B5FFF7D5FF0346184608BD00000000F2
:102BF00000B583B001900198FFF7D2FF03B05DF8F4
:102C000004FB00BF00000000000000000000000006
:102C100000B583B00190009100990198FEF7E0FCA7
:102C20000346184603B05DF804FB00BF0000000037
:102C300000B583B00190009100990198FEF7F0FC77
:102C400003B05DF804FB00BF0000000000000000BE
:102C500000B583B00190009100990198FEF7F8FC4F
:102C600003B05DF804FB00BF00000000000000009E
:102C700000B585B00390029101920093039B002B55
:102C800005D0029B002B02D0019B012B02D81948D2
:102C9000FDF7BEFD039B1846FFF7AAFF039B00222A
:102CA0009A60039B029A1A61039B029ADA60019B65
:102CB0000433009A02FB03F3029A1A44039B5A61FD
:102CC000019B1A1D039B9A61039B009ADA61039B87
:102CD000029A1A62039B00225A62039B00229A62A4
:102CE000039B069ADA62039B079A1A6305B05DF8A4
:102CF00004FB00BFE0A60008000000000000000088
:102D000000B583B00190FDF7ABFE019B00229A60F5
:102D1000019B1A6A019B1A61019B1A6A019BDA6086
:102D2000019B00225A62019B00229A62019B6FF074
:102D300001011846FFF78CFF03B05DF804FB00BFEC
:102D400000B583B00190FDF78BFE019BDA68019B13
:102D50001B699A4205D1019B9B68002B01D001237E
:102D600000E0002303F00103DBB2002B01D00023BD
:102D700002E0019BDB680433184603B05DF804FBF6
:102D800000B583B001900091FDF76AFE009B002B17
:102D900005D0019B9B69043B009A9A4202D91D48C9
:102DA000FDF736FD019BDA68019B1B699A4205D14C
:102DB000019B9B68002B01D0012300E0002303F05E
:102DC0000103DBB2002B02D01248FDF721FD019B6D
:102DD000DB68009A1A60019B9B685A1C019B9A60F1
:102DE000019BDA68019B9B691A44019BDA60019B95
:102DF000DA68019B5B699A4203D3019B1A6A019BC3
:102E0000DA60019B00211846FFF712FF03B05DF85E
:102E100004FB00BFF0A60008000000000000000056
:102E200000B585B001900091FDF732FE0AE0019BEC
:102E300000991846FFF7ECFE0390039B002B01DA84
:102E4000039B18E0019B9B68002BF0D0019B9B68C3
:102E5000002B02D10A48FDF7DBFC019B1B691A1D00
:102E6000019B5A62019B5A6A019B1B691B681A44A9
:102E7000019B9A620023184605B05DF804FB00BF71
:102E800020A7000800000000000000000000000073
:102E900000B583B00190FDF7FBFD019B9B68002B03
:102EA00002D11348FDF7B4FC019B9B685A1E019B9D
:102EB0009A60019B1A69019B9B691A44019B1A61E4
:102EC000019B1A69019B5B699A4203D3019B1A6AB1
:102ED000019B1A61019B00225A62019BDB6A002B55
:102EE00003D0019BDB6A0198984703B05DF804FBAF
:102EF00040A70008000000000000000000000000E3
:102F000000B585B001900091FFF75AFE019B5B6A06
:102F1000002B0BD100990198FFF782FF0390039BD0
:102F2000002B03D0FFF754FE039B14E0019B5B6A68
:102F30001B780393019B5B6A5A1C019B5A62019B9D
:102F40005A6A019B9B6A9A4202D30198FFF7A0FF3D
:102F5000FFF73EFE039B184605B05DF804FB00BF7B
:102F600000B58BB003900291019200930023099366
:102F7000FFF726FEFFF734FE0246009B134406933C
:102F8000039B5B6A002B26D1009BB3F1FF3F02D06D
:102F9000009B002B05D100990398FFF741FF079094
:102FA00012E0FFF71DFE0246069B9B1A0593059A49
:102FB000009B9A4203D9FFF70BFE099B5CE0059941
:102FC0000398FFF72DFF0790079B002B03D0FFF717
:102FD000FFFD099B50E0039B9B6A1A46039B5B6ABB
:102FE000D31A0893019A099BD31A089A9A4203D9D3
:102FF000019A099BD31A0893089B402B13D9039B72
:103000005B6A402219460298FDF78AF9029B403319
:103010000293039B5B6A03F14002039B5A62099B84
:103020004033099314E0039B5B6A089A194602989F
:10303000FDF776F9029A089B13440293039B5A6AA0
:10304000089B1A44039B5A62099A089B13440993EC
:10305000039B5A6A039B9B6A9A4202D30398FFF729
:1030600017FFFFF7B5FD099A019B9A4201D3099B0F
:1030700002E0FFF7A5FD83E718460BB05DF804FBFF
:1030800000B585B00390029101920093039B002B41
:1030900005D0029B002B02D0019B012B02D81948BE
:1030A000FDF7B6FB039B1846FFF7A2FD039B009AB2
:1030B0009A60039B029A1A61039B029ADA60019B51
:1030C0000433009A02FB03F3029A1A44039B5A61E9
:1030D000019B1A1D039B9A61039B009ADA61039B73
:1030E000029A1A62039B00225A62039B00229A6290
:1030F000039B069ADA62039B079A1A6305B05DF890
:1031000004FB00BF60A700080000000000000000F2
:1031100000B583B00190FDF7A3FC019BDA69019B28
:103120009A60019B1A6A019B1A61019B1A6A019BB2
:10313000DA60019B00225A62019B00229A62019B85
:103140006FF001011846FFF783FD03B05DF804FB43
:1031500000B583B001900091FDF782FC019BDA6815
:10316000019B1B699A4205D1019B9B68002B01D0F2
:10317000012300E0002303F00103DBB2002B01D0A8
:10318000002307E0019B1B691A68009B1A60019BE2
:103190001B690433184603B05DF804FB000000000F
:1031A00000B583B00190FDF75BFC019BDA68019BE1
:1031B0001B699A4205D1019B9B68002B01D001231A
:1031C00000E0002303F00103DBB2002B02D0104823
:1031D000FDF71EFB019B9B685A1C019B9A60019B9B
:1031E0001A69019B9B691A44019B1A61019B1A6928
:1031F000019B5B699A4203D3019B1A6A019B1A6186
:10320000019B00211846FFF713FD03B05DF804FB96
:1032100070A700080000000000000000000000008F
:1032200000B585B001900091FDF732FC0AE0019BEA
:1032300000991846FFF7ECFC0390039B002B01DA82
:10324000039B17E0019B9B68002BF0D0019B9B68C0
:10325000002B02D10948FDF7DBFA019BDB681A1D40
:10326000019B5A62019BDA68019B9B691A44019B8E
:103270009A620023184605B05DF804FB90A7000889
:1032800000B583B001900091FDF702FC009B002B7C
:1032900005D0019B9B69043B009A9A4202D91948C8
:1032A000FDF7B6FA019B9B68002B02D11548FDF78C
:1032B000AFFA019BDB68009A1A60019B9B685A1E5B
:1032C000019B9A60019BDA68019B9B691A44019BF0
:1032D000DA60019BDA68019B5B699A4203D3019B28
:1032E0001A6A019BDA60019B00225A62019BDB6A29
:1032F000002B03D0019BDB6A0198984703B05DF86F
:1033000004FB00BFB0A700080000000000000000A0
:1033100000B587B003900B4601928DF80B30FFF794
:103320004FFC039B5B6A002B0BD101990398FFF7BD
:1033300077FF0590059B002B03D0FFF749FC059B09
:1033400019E0039B5B6A9DF80B201A70039B5B6A74
:103350005A1C039B5A62039B5A6A039B9B6A9A42BC
:1033600006D3039B9B69043B19460398FFF788FF2C
:10337000FFF72EFC0023184607B05DF804FB00BFE2
:1033800000B58BB003900291019200930023099342
:10339000FFF716FCFFF724FC0246009B134406933C
:1033A000039B5B6A002B26D1009BB3F1FF3F02D049
:1033B000009B002B05D100990398FFF731FF079080
:1033C00012E0FFF70DFC0246069B9B1A0593059A37
:1033D000009B9A4203D9FFF7FBFB099B60E005992C
:1033E0000398FFF71DFF0790079B002B03D0FFF703
:1033F000EFFB099B54E0039B9B6A1A46039B5B6AA5
:10340000D31A0893019A099BD31A089A9A4203D9AE
:10341000019A099BD31A0893089B402B13D9039B4D
:103420005B6A402202991846FCF77AFF029B403300
:103430000293039B5B6A03F14002039B5A62099B60
:103440004033099314E0039B5B6A089A029918467B
:10345000FCF766FF029A089B13440293039B5A6A87
:10346000089B1A44039B5A62099A089B13440993C8
:10347000039B5A6A039B9B6A9A4206D3039B9B69F0
:10348000043B19460398FFF7FBFEFFF7A1FB099ADF
:10349000019B9A4201D3099B02E0FFF791FB7FE772
:1034A00018460BB05DF804FB0000000000000000AF
:1034B00000B585B00190FDF7D3FA019BDA68019B56
:1034C0001B699A4205D1019B9B68002B01D0012307
:1034D00000E0002303F00103DBB2002B2DD0019BA1
:1034E0005B6A002B29D0019B5B6A1A46019BDB6853
:1034F000D31A043B0393039B002B1ED0019BDB6874
:10350000039A1A60019B9B685A1E019B9A60019B5B
:10351000DA68019B9B691A44019BDA60019BDA68B7
:10352000019B5B699A4203D3019B1A6A019BDA6093
:10353000019B00225A62012300E00023184605B0D7
:103540005DF804FB00000000000000000000000027
:1035500000B589B0039002910192029A019B9A42B0
:1035600004D3029A019BD31A1F2B02D91E48FDF7E0
:103570004FF9019B5B090793019B03F01F0306931F
:10358000029B5B090593029B03F01F030133012299
:1035900002FA03F3013B0493079A059B9A4214D263
:1035A000079B9B00039A13441A68069BDA40059B0D
:1035B0009B0003990B441968049B1940069BC3F1B7
:1035C000200301FA03F3134309E0079B9B00039ACE
:1035D00013441A68049B1A40069B22FA03F3184608
:1035E00009B05DF804FB00BFD0A700080000000090
:1035F00000B587B00190019B002B02D11B48FDF75D
:1036000007F97E227F210198FFF7A2FF0346002BD6
:1036100002D0012B1CD024E03E2249210198FFF763
:1036200097FF05902F2231210198FFF791FF049019
:10363000502253210198FFF78BFF0390059B5A1CE2
:10364000049B02339A40039B093B02FA03F309E00F
:10365000302245210198FFF77BFF034601339B028F
:1036600000E00023184607B05DF804FBF0A700084F
:1036700000B583B00190019B002B02D10C48FDF7EF
:10368000C7F8019BD7331B781A06019BD6331B78EA
:103690001B041A44019BD5331B781B021344019A67
:1036A000D43212781344184603B05DF804FB00BF0F
:1036B00010A800080000000000000000000000004A
:1036C00000B583B001900198FEF7E2F903B05DF810
:1036D00004FB00BF0000000000000000000000002C
:1036E00008B503F0C5F908BD0000000000000000A7
:1036F00000B583B00190019B01221A70019B00224A
:103700005A60019B0C331846FFF7DAFF03B05DF8EF
:1037100004FB00BF000000000000000000000000EB
:1037200082B020230193019B83F3118802B070477C
:1037300082B000230193019B83F3118802B070478C
:1037400008B5FFF7EDFFFEF7CBF8FDF7E9F808BD88
:1037500008B5FDF7FDF8FEF7CBF8094B1B68084AE2
:1037600093420AD0064B9B699A68054B1B689B687D
:103770009A4202D20348FDF74BF8FFF7D9FF08BD84
:1037800028210020B0A80008000000000000000070
:1037900008B5FFF7D5FF08BD0000000000000000DD
:1037A00008B5FFF7D5FF08BD0000000000000000CD
:1037B00000B583B001900198FDF76AFE03B05DF893
:1037C00004FB00BF0000000000000000000000003B
:1037D00000B585B0019003AB4FF4D5720821019874
:1037E00005F0F6F8034683F00103DBB2002B1AD094
:1037F000019B01221A63039B1B0A03F00F03012B99
:1038000001D001232AE003AB00223721019805F003
:10381000DFF80346002B04D1039A124B1340002B10
:103820001BD001231AE003AB00223721019805F0D9
:10383000CFF80346002B04D1039A0A4B1340002B08
:1038400003D0019B02221A6307E0019B00221A6346
:1038500000220021019805F05BF80023184605B00E
:103860005DF804FB08E0FFFD000000000000000020
:1038700000B587B00190174B04930023059303AB69
:10388000049A0121019805F063F80346002B01D04A
:1038900001231BE0039B002B0CDA039B03F0804306
:1038A000002B05D0019B1B6B43F01002019B1A6398
:1038B00000230BE0059B01330593059B632B01D986
:1038C000012303E06420FFF773FFD8E7184607B031
:1038D0005DF804FB0080FFC0000000000000000055
:1038E00000B587B00190019B1B6B03F00F03012B08
:1038F00002D1214B049301E0204B04930023059354
:1039000003AB00223721019805F062F80346002B33
:1039100004D1039A1A4B1340002B01D0012326E057
:1039200003AB049A2921019805F012F80346002BF5
:1039300001D001231BE0039B002B0CDA039B03F057
:103940008043002B05D0019B1B6B43F01002019BB1
:103950001A6300230BE0059B01330593059B632B42
:1039600001D9012303E06420FFF722FFC8E71846CE
:1039700007B05DF804FB00BF0080FF50000010801E
:1039800008E0FFFD00000000000000000000000053
:1039900000B585B002910192009303468DF80F3077
:1039A000029BBF2B02D90C48FCF732FF009B072B70
:1039B00002D90948FCF72CFF9DF80F301A06029B2C
:1039C0001B041A43019B1B021A43009B1343184616
:1039D00005B05DF804FB00BF50A80008000000001F
:1039E00000B585B0034600928DF807300B468DF880
:1039F00006306FF07F430393009B0F2B02D90F48D3
:103A0000FCF706FF9DF806309B000F2202FA03F335
:103A1000DB43039A134003939DF806309B00009A02
:103A200002FA03F3039A134303939DF80730DA076E
:103A3000039B1343184605B05DF804FB70A800080B
:103A400084B0034600918DF807309DF80720134697
:103A5000DB079B1A5B000C330393009A039B134410
:103A60001B781B021AB2039B013300990B441B788D
:103A70001BB213431BB29BB2184604B0704700BF81
:103A800084B0034600918DF80730009B0E331B78FD
:103A90001A04009B0F331B781B021343009A103249
:103AA0001278134303939DF807309B00039A22FA80
:103AB00003F303F00F030293029B0F2B01D00023AB
:103AC00000E00123184604B0704700BF000000006A
:103AD000B0B588B002AF786039606B461D464023B0
:103AE0007B617B69013B3B617B6919464FF00002BA
:103AF0004FF000034FF00004D40044EA5174CB00AF
:103B00007B6919464FF000024FF000034FF00004AC
:103B1000D40044EA5174CB007B690733DB08DB0037
:103B2000ADEB030D02AB0033FB603B6800221A7063
:103B30007B6818337E227F211846FFF709FD034674
:103B4000002B04D13B6800221A7000233CE0F96886
:103B50000023009306237A69786804F0C9FF0346BE
:103B6000002B01D001232FE0FB6819460020FFF74E
:103B700067FF034603F00203022B24D10122002138
:103B80000120FFF72DFFB860F968BB68009306239A
:103B90007A69786804F0ACFF0346002B01D001235A
:103BA00012E0FB6819460020FFF76AFF034683F026
:103BB0000103DBB2002B03D03B6801221A7002E044
:103BC0003B6800221A700023AD4618461837BD46E0
:103BD000B0BD00BF000000000000000000000000B9
:103BE00000B587B001900091019BDB6A1B680593CB
:103BF000009B00221A70059B002B01D100231BE0C3
:103C000000230122B9210320FFF7C2FE049003AB79
:103C1000049A0621019804F0DBFE034683F00103B9
:103C2000DBB2002B07D0039A054B1340002B02D1C7
:103C3000009B01221A700023184607B05DF804FBB0
:103C400008E0FFFD00000000000000000000000090
:103C500000B583B001900091019B1B6B03F00F0333
:103C6000022B05D100990198FFF7BAFF034604E043
:103C700000990198FFF72CFF0346184603B05DF842
:103C800004FB00BF00000000000000000000000076
:103C900000B585B00190019BDB6A1B79002B01D137
:103CA00000232CE0019BDB6A1B79012B24D101212D
:103CB000019804F005FE019B9A6B03AB3721019834
:103CC00004F086FE0346002B04D1039A0E4B1340EA
:103CD000002B01D0012312E003AB02220621019840
:103CE00004F076FE0346002B04D1039A064B1340E2
:103CF000002B03D0012302E0012300E0002318463B
:103D000005B05DF804FB00BF08E0FFFD0000000007
:103D100000B585B0019000230022B7210320FFF7F2
:103D200037FE0390019BDB6A1B79012B05D0022B28
:103D30000BD0002B11D100232AE000230122B72150
:103D40000320FFF725FE03900AE000230222B7219B
:103D50000320FFF71DFE039002E00F48FCF758FD1B
:103D6000019BDB6A1B791946019804F0A9FD02AB9F
:103D7000039A0621019804F02BFE0346002B04D180
:103D8000029A064B1340002B01D0012300E00023D0
:103D9000184605B05DF804FB90A8000808E0FFFD98
:103DA00000B585B00190019B9A6B03AB0D21019882
:103DB00004F00EFE0346002B04D1039A0D4B134072
:103DC000002B01D0012311E0039B5B0A03F00F03DA
:103DD000042B04D0042B08D3072B06D801E00023C2
:103DE00004E00A20FFF7E4FCDDE70123184605B0F4
:103DF0005DF804FB08E0FFFD00000000000000008B
:103E000008B504F005FD08BD00000000000000003A
:103E100082B00190019B084A1A60019B01221A712D
:103E2000019B00225A63019B0022DA62019B00225F
:103E30009A6202B0704700BF30A80008000000007E
:103E400000B589B0039000238DF81730039B002B39
:103E500002D16F48FCF7DCFC039B1B79022B06D0D8
:103E6000039B1B79052B02D06948FCF7D1FC039B0F
:103E700003221A71039804F0E3FC00220021039846
:103E800004F046FD0398FFF7A3FC0346002B40F027
:103E9000B480039B1B6B03F00F03022B07D1039825
:103EA000FFF7E6FC0346002B40F0A78006E00398EE
:103EB000FFF716FD0346002B40F09F80039B08335D
:103EC00000220221039804F0C3FD0346002B40F0BA
:103ED0009480039B383300220321039804F078FD7B
:103EE0000346002B40F08980039B9A6B039B183399
:103EF0000921039804F0ACFD0346002B7DD1039B00
:103F00009A6B06AB0721039804F062FD0346002B71
:103F100073D10DF1170319460398FFF799FE034675
:103F2000002B6AD19DF817301946039804F0A8FCBD
:103F3000039B1B6B03F00F03022B2CD1039B183345
:103F40007E227F211846FFF703FB0346012B19D978
:103F5000039BDB6A1B680793079B002B4DD0002354
:103F6000009308234FF400720799039804F0C0FDF2
:103F70000346002B41D10798FFF77AFB0246039BCB
:103F80009A6210E0039B18331846FFF731FB024694
:103F9000039B9A6207E0039B18331846FFF728FB40
:103FA0000246039B9A6206AB4FF4007210210398FD
:103FB00004F00EFD0346002B1FD1069A154B13404B
:103FC000002B1AD1039B1B6B03F00F03012B02D9AB
:103FD000022B07D011E00398FFF75AFE0346002B8F
:103FE0000BD105E00398FFF793FE0346002B04D1A5
:103FF000039B05221A71002306E0039804F050FC8D
:10400000039B02221A710123184609B05DF804FBD4
:10401000C0A8000808E0FFFD00000000000000004C
:1040200000B583B00190019B002B02D11A48FCF728
:10403000EFFBFFF7ADFB019B1B79022B06D0019B29
:104040001B79052B02D01448FCF7E2FB019B1B797E
:10405000022B03D1FFF7A4FB002319E0019B0422EC
:104060001A71FFF79DFB0198FFF79AFE0346002B9C
:1040700007D0019804F014FC019B02221A7101235D
:1040800006E0019804F00CFC019B02221A71002347
:10409000184603B05DF804FBD0A80008000000003B
:1040A00000B587B00390029101920093039B002B0F
:1040B00005D0019B002B02D0009B002B02D117489A
:1040C000FCF7A6FB039B1B79052B02D01348FCF7DA
:1040D0009FFB029A009B13445A1E039B9B6A9A42C1
:1040E00007D9039B5B6B43F08002039B5A63012358
:1040F00010E0039B06221A71009B019A0299039813
:1041000004F00EFE03468DF81730039B05221A714A
:104110009DF81730184607B05DF804FBE0A80008CA
:1041200000B587B00390029101920093039B002B8E
:1041300005D0019B002B02D0009B002B02D1174819
:10414000FCF766FB039B1B79052B02D01348FCF799
:104150005FFB029A009B13445A1E039B9B6A9A4280
:1041600007D9039B5B6B43F08002039B5A630123D7
:1041700010E0039B07221A71009B019A0299039891
:1041800004F00EFE03468DF81730039B05221A71CA
:104190009DF81730184607B05DF804FBF0A800083A
:1041A00000B585B00190019B002B02D10D48FCF7B2
:1041B0002FFB019B1B79052B01D001230DE0019BF7
:1041C00008221A71019804F02BFE03468DF80F3077
:1041D000019B05221A719DF80F30184605B05DF855
:1041E00004FB00BF00A90008000000000000000060
:1041F00000B583B001900091019B002B02D0009B81
:10420000002B02D10A48FCF703FB019B1B79052B0D
:1042100001D0012308E0019B9A6A009B5A60009B31
:104220004FF400721A600023184603B05DF804FBD7
:1042300010A90008000000000000000000000000BD
:1042400082B020230193019B83F3118802B0704751
:1042500082B000230193019B83F3118802B0704761
:1042600008B5FFF7EDFFFDF73BFBFCF759FB08BD79
:1042700008B5FCF76DFBFDF73BFB094B1B68084AD3
:1042800093420AD0064B9B699A68054B1B689B6852
:104290009A4202D20348FCF7BBFAFFF7D9FF08BDE8
:1042A0002821002050A900080000000000000000A4
:1042B00082B00190019B019A1A6002B0704700BF62
:1042C00000B583B00190FCF7CBFB019B9B68002BF2
:1042D0000CBF01230023DBB2184603B05DF804FBDA
:1042E00008B5FFF7BDFF08BD00000000000000009A
:1042F00008B5FFF7BDFF08BD00000000000000008A
:1043000000B583B001900198FFF7D2FF03B05DF8CC
:1043100004FB00BF000000000000000000000000DF
:1043200000B583B00190009100990198FDF7D0FC91
:1043300003B05DF804FB00BF0000000000000000B7
:1043400000B585B0039002910192039B03F1300008
:104350004FF0FF33019A0299FEF722F903461846FF
:1043600005B05DF804FB00BF000000000000000085
:1043700000B585B0039002910192039B03F10C00FC
:104380004FF0FF33019A0299FEF70AF803461846E8
:1043900005B05DF804FB00BF000000000000000055
:1043A00000B583B001900B468DF80330019B30338C
:1043B0009DF803104FF0FF321846FEF779F80346D8
:1043C000184603B05DF804FB000000000000000088
:1043D00000B583B00190019B0C334FF0FF311846BC
:1043E000FDF796FF0346184603B05DF804FB00BFD7
:1043F00000B585B003900B4601928DF80B30039BFE
:1044000030339DF80B10019A1846FEF751F8034619
:10441000184605B05DF804FB000000000000000035
:1044200000B583B001900091019B0C3300991846B0
:10443000FDF76EFF0346184603B05DF804FB00BFAE
:1044400000B585B00390029101920093039B03F1A4
:104450003000009B019A0299FEF7A2F80346184625
:1044600005B05DF804FB00BF000000000000000084
:1044700000B585B00390029101920093039B03F174
:104480000C00009B019A0299FDF78AFF034618462B
:1044900005B05DF804FB00BF000000000000000054
:1044A00008B504F085FE08BD000000000000000013
:1044B00000B587B0059004910392059B134A1A60DA
:1044C000059B04331846FFF71BFF059B01221A7258
:1044D000059B03F10C00059B03F15401059B009320
:1044E000049B4FF48072FDF7B3FE059B03F130008F
:1044F000059B03F5AA71059B0093039B4FF4807203
:10450000FDF7AEFF07B05DF804FB00BF20A900086F
:1045100000B583B001900091019B002B02D10E48A1
:10452000FCF776F9FFF7DCFE019B1B7A012B06D026
:10453000019B1B7A022B02D00748FCF769F900990E
:10454000019804F04DFE019B02221A72FFF7D0FE83
:1045500003B05DF804FB00BF40A9000800000000A4
:1045600000B583B001900B468DF80330FCF778FA64
:10457000019B002B02D11248FCF74AF9019B0C3336
:104580001846FFF79DFE0346002B05D0019B043320
:1045900004211846FFF7C4FE019B0C339DF803204D
:1045A00011461846FDF77CFE0346002B05DA019BF9
:1045B000043380211846FFF7B3FE03B05DF804FB17
:1045C00060A90008000000000000000000000000DA
:1045D00082B020230193019B83F3118802B07047BE
:1045E00082B000230193019B83F3118802B07047CE
:1045F00008B5FFF7EDFF08BD000000000000000057
:1046000008B5FFF7EDFF08BD000000000000000046
:1046100008B5FFF7DDFFFDF763F9FCF781F908BD89
:1046200008B5FCF795F9FDF763F9094B1B68084AD3
:1046300093420AD0064B9B699A68054B1B689B689E
:104640009A4202D20348FCF7E3F8FFF7C9FF08BD1E
:1046500028210020A0A900080000000000000000A0
:1046600008B5FFF7C5FFFDF74BF9FCF789F908BD61
:1046700008B5FCF79DF9FDF74BF9FFF7C1FF08BD41
:1046800082B00190019B019A1A6002B0704700BF8E
:1046900008B5FFF7BDFF08BD0000000000000000E6
:1046A00008B5FFF7BDFF08BD0000000000000000D6
:1046B00008B5FFF7D5FF08BD0000000000000000AE
:1046C00008B5FFF7D5FF08BD00000000000000009E
:1046D00000B583B001900198FFF7D2FF03B05DF8F9
:1046E00004FB00BF0000000000000000000000000C
:1046F00000B583B00190009100990198FDF7E8FAA8
:1047000003B05DF804FB00BF0000000000000000E3
:1047100000B585B00190019BD3F884341B681B78E9
:10472000042B03D1019B1B7A022B01D001232BE028
:10473000019BD3F884341B685A89019BD3F88434D5
:104740001B79194601238B409BB213409BB2002B6F
:1047500001D0012318E0019B0C331846FEF7F0FA54
:104760000390039B002B01D101230DE0019BD3F8A3
:1047700084341868019BD3F8843459794FF48073DA
:10478000039A00F035FF0023184605B05DF804FBDE
:1047900000B585B0039002910192039BD3F8843455
:1047A0001B681B78042B01D0002309E0039B03F155
:1047B00040004FF0FF33019A0299FEF7E1FD0346F6
:1047C000184605B05DF804FB000000000000000082
:1047D00000B585B0039002910192039BD3F8843415
:1047E0001B681B78042B01D0002309E0039B03F115
:1047F0000C004FF0FF33019A0299FEF7B1FB03461C
:10480000184605B05DF804FB000000000000000041
:1048100000B583B001900B468DF80330019BD3F8AF
:1048200084341B681B78042B02D06FF0010309E06D
:10483000019B40339DF803104FF0FF321846FEF7FE
:1048400067FD0346184603B05DF804FB0000000056
:1048500000B583B00190019BD3F884341B681B78AA
:10486000042B02D06FF0010307E0019B0C334FF0E3
:10487000FF311846FEF744FB0346184603B05DF8C7
:1048800004FB00BF0000000000000000000000006A
:1048900000B585B003900B4601928DF80B30039B59
:1048A000D3F884341B681B78042B02D06FF001030B
:1048B00008E0039B40339DF80B10019A1846FEF761
:1048C00027FD0346184605B05DF804FB0000000014
:1048D00000B583B001900091019BD3F884341B682C
:1048E0001B78042B02D06FF0010306E0019B0C3310
:1048F00000991846FEF704FB0346184603B05DF81E
:1049000004FB00BF000000000000000000000000E9
:1049100000B585B00390029101920093039BD3F8F8
:1049200084341B681B78042B01D0002308E0039B10
:1049300003F14000009B019A0299FEF721FD034616
:10494000184605B05DF804FB000000000000000000
:1049500000B585B00390029101920093039BD3F8B8
:1049600084341B681B78042B01D0002308E0039BD0
:1049700003F10C00009B019A0299FEF7F1FA03463D
:10498000184605B05DF804FB0000000000000000C0
:1049900000B585B00190019B1B6B03930398FFF753
:1049A000B7FE05B05DF804FB000000000000000049
:1049B00000B587B00190019B1B6B0593059BD3F855
:1049C00084341B681B78042B2CD1059B1B7A022B8B
:1049D00028D1059BD3F884341B681A89059BD3F82A
:1049E00084341B79194601238B409BB213409BB240
:1049F000002B18D1059B403303AA11461846FEF739
:104A0000A7FB0490049B002B0DD0059BD3F88434A6
:104A10001868059BD3F884341979039B049A00F035
:104A200037FE00E000BF07B05DF804FB00000000A7
:104A3000704700BF00000000000000000000000000
:104A400000B585B00390039B154A1A60039B04339D
:104A50001846FFF73DFE039B01221A72039B03F1E8
:104A60000C00039B03F17401039B01930D4B009316
:104A700002234FF48072FEF7FBF8039B03F1400022
:104A8000039B03F51F71039B0193074B00930223C4
:104A90004FF48072FEF7F4FA05B05DF804FB00BF36
:104AA00070A9000891490008B14900080000000001
:104AB00000B585B001900091009B1B680393019B9A
:104AC000002B02D11C48FBF7A3FEFFF7E1FD019B81
:104AD0001B7A012B06D0019B1B7A022B02D01648B1
:104AE000FBF796FE009B1B79013B039A08339B0062
:104AF0001344019A5A60009B5B795A1E039B0E3245
:104B0000019943F82210009B9B79002B08D0009B51
:104B10009B79013B039A08339B001344019A5A6026
:104B2000019B009AC3F88424019B02221A72FFF7AA
:104B3000B7FD05B05DF804FB90A900080000000077
:104B400000B583B00190019B043302211846FFF7A2
:104B5000CFFD019B0C331846FEF7D2F8019B403382
:104B60001846FEF7D5FA03B05DF804FB000000001C
:104B700000B583B00190019B0C331846FEF7C0F8D6
:104B8000019B40331846FEF7C3FA019B0433012111
:104B90001846FFF7ADFD0198FFF7BAFD03B05DF8C9
:104BA00004FB00BF00000000000000000000000047
:104BB00082B00190019B93F85C3003F06003202BDE
:104BC0002CD1019B93F85D30212B04D0222B18D0DF
:104BD000202B0BD020E0019B124A1A65019B072273
:104BE0005A65019B00229A65012318E0019B0D4A3A
:104BF0001A65019B07225A65019B00229A650123D1
:104C00000DE0019B00221A65019B00225A65019B61
:104C100000229A65012302E0002300E000231846E9
:104C200002B07047000000200000000000000000FB
:104C300000B585B00190019BD3F884341B681B78C4
:104C4000042B36D1019B1B7A022B32D1019BD3F866
:104C500084341B681A89019BD3F884341B79194664
:104C600001238B409BB213409BB2002B21D1019BAF
:104C700040331846FEF71CFC0346002B19D0019B5D
:104C8000403302AA11461846FEF762FA0390039BCE
:104C9000002B02D10848FBF7BBFD019BD3F88434FD
:104CA0001868019BD3F884341979029B039A00F0A9
:104CB000EFFC05B05DF804FBB0A90008000000009F
:104CC00000B587B001900B468DF803309DF8033096
:104CD000013B019A08339B0013445B680593059BD5
:104CE000002B56D0FFF7E4FC059B0433082118463F
:104CF000FFF7FEFC9DF80330019A02339B0013443A
:104D00005B685B691B68002B04D0059B4033184629
:104D1000FEF746FA059B403303AA11461846FEF7F4
:104D200017FA0490049B002B07D0039B9DF80310F7
:104D3000049A019800F0ACFC28E09DF80330019A39
:104D400002339B0013445B685B691B68002B1DD01A
:104D50009DF80330019A02339B0013445B685B6942
:104D60001A689DF80330019902339B000B445B687D
:104D70001B8A013B1340002B08D1019B03F15C020D
:104D80009DF803100023019800F082FCFFF798FCC7
:104D900000E000BF07B05DF804FB00BF00000000AA
:104DA00000B585B001900B468DF803309DF80330B7
:104DB0005A1E019B0E3253F822300393039B002BA3
:104DC00024D0FFF775FC039BD3F884341A68039B47
:104DD000D3F884345B7902339B0013445B689B698E
:104DE0005B680293029B002B0BD0039B04330421CE
:104DF0001846FFF77DFC039B0C3302991846FDF71C
:104E0000BFFF0398FFF784FCFFF75AFC05B05DF87D
:104E100004FB00BF000000000000000000000000D4
:104E200082B001900B468DF8033002B0704700BF8E
:104E300082B020230193019B83F3118802B0704755
:104E400082B000230193019B83F3118802B0704765
:104E500008B5FFF7EDFF08BD0000000000000000EE
:104E600008B5FFF7EDFF08BD0000000000000000DE
:104E700008B5FFF7DDFFFCF733FDFBF751FD08BD7B
:104E800008B5FBF765FDFCF733FD094B1B68084AC5
:104E900093420AD0064B9B699A68054B1B689B6836
:104EA0009A4202D20348FBF7B3FCFFF7C9FF08BDE3
:104EB0002821002000AA00080000000000000000D7
:104EC00008B5FFF7C5FFFCF71BFDFBF759FD08BD53
:104ED00008B5FBF76DFDFCF71BFDFFF7C1FF08BD33
:104EE00008B5FFF7C5FF08BD000000000000000086
:104EF00008B5FFF7C5FF08BD000000000000000076
:104F000008B5FFF7DDFF08BD00000000000000004D
:104F100008B5FFF7DDFF08BD00000000000000003D
:104F200000B583B00190009100990198FCF730FB27
:104F300003B05DF804FB00BF0000000000000000AB
:104F400084B00190019B5A1C01921B78ADF80E3081
:104F5000019B1B781B021AB2BDF90E3013431BB222
:104F6000ADF80E30BDF80E30184604B0704700BFE3
:104F700000B583B00190019B93F85E20019B83F8FC
:104F80006620019802F0BCFD019B5B681B68002B4A
:104F900005D0019B5B681B68012101989847019B24
:104FA00003221A7003B05DF804FB00BF000000008C
:104FB00070B584B00190019B93F85C3003F07F02E0
:104FC000019B93F85D301B02134340F2023293427F
:104FD00000F09F8140F20232934215D8022B00F07C
:104FE0000E81022B05D8002B27D0012B00F0FC806E
:104FF000C3E1B3F5817F00F05881B3F5407F44D021
:10500000B3F5807F26D0B8E140F20162934206D822
:10501000B3F5C06F6CD2B3F5A06F51D0ADE1B3F56D
:10502000106F00F0988040F60242934200F0DC805E
:10503000B3F5006F00F082809FE1019B03F16402F1
:10504000019B1A65019B02225A65019B00229A6509
:10505000012393E1019B93F85E30012B13D1019B57
:10506000B3F8643023F002039AB2019BA3F86420E2
:10507000019B00221A65019B00225A65019B0022B8
:105080009A6501237AE1002378E1019B93F85E3071
:10509000012B13D1019BB3F8643043F002039AB2A1
:1050A000019BA3F86420019B00221A65019B00224A
:1050B0005A65019B00229A6501235FE100235DE1AF
:1050C000019B93F85C30002B07D1019B93F85D3076
:1050D000052B02D10198FFF74BFF019B00221A65B7
:1050E000019B00225A65019B00229A65012345E13C
:1050F000019B5B685C68019B93F85F50019B93F890
:105100005E60019B60331846FFF71AFF0346324684
:1051100029460198A0470390039B002B01D100234F
:105120002CE1039B5A68019B1A65039B1A68019B3B
:105130005A65019B00229A6501231FE1019B03F13F
:105140006702019B1A65019B01225A65019B00229F
:105150009A65012312E1019B93F86720019B93F864
:105160005E309A4235D0019B1B78042B18D1FFF793
:10517000C7FE019800F0CCF9FFF7CAFE019B0022A0
:1051800083F86720019B03221A70019B5B681B68F0
:10519000002B05D0019B5B681B6803210198984791
:1051A000019B93F85E30002B13D0019B93F85E2097
:1051B000019B83F86720019B04221A70019B5B68A6
:1051C0001B68002B05D0019B5B681B6802210198BE
:1051D0009847019B00221A65019B00225A65019B9A
:1051E00000229A650123C9E0019B664A1A65019B6A
:1051F00002225A65019B00229A650123BEE0019BB1
:1052000093F860305BB2002B27DA019B93F8603093
:1052100003F00F03DBB21946019802F0E1FD0346EB
:10522000012B02D0022B0BD015E0019B564A1A65C8
:10523000019B02225A65019B00229A6501239DE091
:10524000019B524A1A65019B02225A65019B00226A
:105250009A65012392E0002390E0019B93F860306F
:1052600003F00F03DBB21946019802F099FD0346E3
:10527000012B02D0022B0BD015E0019B424A1A658C
:10528000019B02225A65019B00229A65012375E069
:10529000019B3E4A1A65019B02225A65019B00222E
:1052A0009A6501236AE0002368E0019B93F85E3071
:1052B000002B01D0002361E0019B93F8603003F0E4
:1052C0000F03002B1AD0019B93F860305BB2002BC8
:1052D0000ADA019B93F8603003F00F03DBB2194642
:1052E000019802F065FF09E0019B93F8603003F03C
:1052F0000F03DBB21946019802F03AFF019B00222E
:105300001A65019B00225A65019B00229A650123C0
:1053100034E0019B93F85E30002B01D000232DE098
:10532000019B93F8603003F00F03002B1AD0019B10
:1053300093F860305BB2002B0ADA019B93F860307F
:1053400003F00F03DBB21946019802F0F1FE09E009
:10535000019B93F8603003F00F03DBB2194601980C
:1053600002F0C6FE019B00221A65019B00225A65CD
:10537000019B00229A65012300E00023184604B037
:1053800070BD00BFC0A90008E0A90008D0A90008AE
:1053900008B502F04DFA08BD000000000000000052
:1053A00084B00190019B01221A70019B00225A6077
:1053B000002303930FE0019A039B08339B001344DF
:1053C00000225A60019B039A0E32002143F82210FA
:1053D000039B01330393039B042BECD9019B002215
:1053E0001A81019B00225A8104B07047000000001E
:1053F00000B585B001900091019B002B02D0009B6D
:10540000002B02D11648FBF703FAFFF769FD019B59
:105410001B78012B06D0019B1B78022B02D0104871
:10542000FBF7F6F9019B009A5A600023039309E009
:10543000019A039B02339B00134400225A60039B92
:1054400001330393039B052BF2D9019802F020FA54
:10545000019B02221A70FFF74BFD05B05DF804FBBB
:10546000F0A900080000000000000000000000009B
:1054700000B585B003900B4601928DF80B30FBF719
:10548000EFFA039B002B02D0019B002B02D11E4898
:10549000FBF7BEF9039B1B78042B02D01A48FBF7DD
:1054A000B7F99DF80B30039A02339B0013445B68F5
:1054B000002B02D01448FBF7ABF99DF80B30039A90
:1054C00002339B001344019A5A60019B5B69002BD5
:1054D00006D0019B5B6914220021184604F0F8FEF7
:1054E000019B9B69002B06D0019B9B691422002124
:1054F000184604F0EDFE9DF80B301946039802F0B3
:1055000017FB05B05DF804FB10AA000800000000BE
:1055100000B585B00190FBF7A3FA019B002B02D1E7
:105520003048FBF775F9019B1B78042B02D02D48FE
:10553000FBF76EF9019B1B8903F001039AB2019BF3
:105540001A81019B5B8903F001039AB2019B5A8186
:10555000012303933DE0019A039B02339B00134414
:105560005B68002B2BD0019A039B02339B001344F2
:105570005B685B69002B0CD0019A039B02339B0094
:1055800013445B685B690C336FF001011846FFF749
:10559000C7FC019A039B02339B0013445B689B6921
:1055A000002B0CD0019A039B02339B0013445B68D1
:1055B0009B690C336FF001011846FFF7B1FC019AAB
:1055C000039B02339B00134400225A60039B013368
:1055D0000393039B052BBED9019802F0D1FB05B0C4
:1055E0005DF804FB30AA0008000000000000000085
:1055F00000B587B00390019200930B468DF80B30F5
:10560000FBF72EFA039B002B03D09DF80B30052BE4
:1056100002D91E48FBF7FCF8039B5A899DF80B3012
:10562000012101FA03F39BB213409BB2002B02D07D
:105630001648FBF7EDF8039B5A899DF80B300121C2
:1056400001FA03F39BB213439AB2039B5A819DF86C
:105650000B30039A02339B0013445B689B690593EC
:10566000059B019A9A60059B009A1A60059B00228F
:105670005A60059B0022DA609DF80B3019460398AA
:1056800002F0E6FB07B05DF804FB00BF50AA00087B
:1056900000B587B00390019200930B468DF80B3054
:1056A000FBF7DEF9039B002B03D09DF80B30052B95
:1056B00002D91E48FBF7ACF8039B1A899DF80B3002
:1056C000012101FA03F39BB213409BB2002B02D0DD
:1056D0001648FBF79DF8039B1A899DF80B300121B2
:1056E00001FA03F39BB213439AB2039B1A819DF80C
:1056F0000B30039A02339B0013445B685B6905938C
:10570000059B019A9A60059B009A1A60059B0022EE
:105710005A60059B0022DA609DF80B301946039809
:1057200002F036FC07B05DF804FB00BF70AA000869
:1057300000B585B00190019B02221A70019B0022E6
:10574000A3F86420019B002283F86620019B0022BD
:1057500083F86720019B00221A81019B00225A8155
:105760000023039341E0019A039B02339B001344FF
:105770005B68002B2FD0FFF7C3FB019A039B02331A
:105780009B0013445B685B69002B0CD0019A039B60
:1057900002339B0013445B685B690C336FF00101BB
:1057A0001846FFF7BDFB019A039B02339B0013448D
:1057B0005B689B69002B0CD0019A039B02339B0012
:1057C00013445B689B690C336FF001011846FFF7C7
:1057D000A7FBFFF79DFB019A039B02339B00134439
:1057E00000225A60039B01330393039B052BBAD914
:1057F000019B002283F84C20019802F0E9F8019BFC
:105800005B681B68002B05D0019B5B681B6800214F
:105810000198984705B05DF804FB00BF0000000048
:1058200000B585B00190019B1A78019B83F8682030
:10583000019B05221A70019B5B681B68002B05D039
:10584000019B5B681B680421019898470023039320
:105850003AE0019A039B02339B0013445B68002BE0
:105860002FD0FFF74DFB019A039B02339B0013449B
:105870005B685B69002B0CD0019A039B02339B0091
:1058800013445B685B690C336FF001011846FFF746
:1058900047FB019A039B02339B0013445B689B699F
:1058A000002B0CD0019A039B02339B0013445B68CE
:1058B0009B690C336FF001011846FFF731FBFFF7CE
:1058C00027FB039B01330393039B052BC1D905B031
:1058D0005DF804FB00000000000000000000000074
:1058E00000B583B00190019B93F86820019B1A706A
:1058F000019B5B681B68002B05D0019B5B681B68E4
:1059000005210198984703B05DF804FB00000000F2
:1059100000B585B001900B468DF80330019B93F8DC
:105920004C30002B03D0019B002283F84C20019BBC
:1059300003F15C029DF803301946019802F070FAF9
:10594000019B5B689B68002B0AD0019B5B689B688E
:1059500001989847034683F00103DBB2002B27D060
:10596000019B93F85C3003F06003002B08D1019891
:10597000FFF71EFB034683F00103DBB2002B17D0B9
:105980000021019802F0D4FB0021019802F0B0FB45
:10599000019B5B681B68002B05D0019B5B681B6843
:1059A000062101989847019B062283F84C205BE072
:1059B000019B62331846FFF7C3FA03460393019B2A
:1059C0005B6D039A9A4202D2019B039A5A65019B2E
:1059D00093F85C305BB2002B23DA019B5B6D002BEC
:1059E00010D0019B092283F84C20FFF789FA019B14
:1059F0001A6D019B5B6D00210198FFF749FEFFF7CF
:105A000087FA31E0019B142283F84C20FFF778FAE3
:105A10000023002200210198FFF7EAFDFFF778FA42
:105A200022E0019B5B6D002B10D0019B152283F8B7
:105A30004C20FFF765FA019B1A6D019B5B6D0021FD
:105A40000198FFF7D5FDFFF763FA0DE0019B0B22EC
:105A500083F84C20FFF754FA00230022002101981C
:105A6000FFF716FEFFF754FA05B05DF804FB00BF20
:105A700000B585B001900B468DF80330019B93F87B
:105A80004C30152B00F28E8001A252F823F000BF9B
:105A90006F5B0008A55B0008A55B0008A55B00081C
:105AA000A55B0008A55B0008755B0008A55B000806
:105AB000A55B0008E95A0008375B0008555B000841
:105AC000A55B0008A55B0008A55B0008A55B0008B6
:105AD000A55B0008A55B0008A55B0008A55B0008A6
